{
  "contractName": "SimpleContract",
  "abi": [
    {
      "inputs": [],
      "name": "getNumber",
      "outputs": [
        {
          "internalType": "uint256",
          "name": "",
          "type": "uint256"
        }
      ],
      "stateMutability": "view",
      "type": "function",
      "constant": true
    },
    {
      "inputs": [
        {
          "internalType": "uint256",
          "name": "_number",
          "type": "uint256"
        }
      ],
      "name": "setNumber",
      "outputs": [],
      "stateMutability": "nonpayable",
      "type": "function"
    },
    {
      "inputs": [
        {
          "internalType": "uint256",
          "name": "_factor",
          "type": "uint256"
        }
      ],
      "name": "multiply",
      "outputs": [],
      "stateMutability": "nonpayable",
      "type": "function"
    }
  ],
  "bytecode": "0x608060405234801561000f575f80fd5b506101ed8061001d5f395ff3fe608060405234801561000f575f80fd5b506004361061003f575f3560e01c80633fb5c1cb14610043578063c6888fa11461005f578063f2c9ecd81461007b575b5f80fd5b61005d600480360381019061005891906100f6565b610099565b005b610079600480360381019061007491906100f6565b6100a2565b005b6100836100b7565b6040516100909190610130565b60405180910390f35b805f8190555050565b805f546100af9190610176565b5f8190555050565b5f8054905090565b5f80fd5b5f819050919050565b6100d5816100c3565b81146100df575f80fd5b50565b5f813590506100f0816100cc565b92915050565b5f6020828403121561010b5761010a6100bf565b5b5f610118848285016100e2565b91505092915050565b61012a816100c3565b82525050565b5f6020820190506101435f830184610121565b92915050565b7f4e487b71000000000000000000000000000000000000000000000000000000005f52601160045260245ffd5b5f610180826100c3565b915061018b836100c3565b9250828202610199816100c3565b915082820484148315176101b0576101af610149565b5b509291505056fea2646970667358221220811307c58e5fa5042b847e57329b68957cd73fcc838462e2234b9a95fcd8872f64736f6c63430008150033",
  "immutableReferences": {},
  "source": "// SPDX-License-Identifier: MIT\r\npragma solidity ^0.8.0;\r\n\r\ncontract SimpleContract {\r\n    uint256 private myNumber;\r\n\r\n    function getNumber() public view returns (uint256) {\r\n        return myNumber;\r\n    }\r\n\r\n    function setNumber(uint256 _number) public {\r\n        myNumber = _number;\r\n    }\r\n\r\n    function multiply(uint256 _factor) public {\r\n        myNumber = myNumber * _factor;\r\n    }\r\n}\r\n",
  "sourcePath": "C:\\Users\\Bujosa\\Documents\\Programming\\express\\aiolos\\contracts\\SimpleContract.sol",
  "compiler": {
    "name": "solc",
    "version": "0.8.21+commit.d9974bed.Emscripten.clang"
  },
  "schemaVersion": "3.4.16",
  "updatedAt": "2023-10-26T01:40:30.465Z",
  "networkType": "ethereum",
  "devdoc": {
    "kind": "dev",
    "methods": {},
    "version": 1
  },
  "userdoc": {
    "kind": "user",
    "methods": {},
    "version": 1
  }
}